{
  "_format": "hh-sol-artifact-1",
  "contractName": "Creator",
  "sourceName": "contracts/RideHailing.sol",
  "abi": [
    {
      "inputs": [],
      "stateMutability": "nonpayable",
      "type": "constructor"
    },
    {
      "inputs": [
        {
          "internalType": "uint256",
          "name": "_points",
          "type": "uint256"
        },
        {
          "internalType": "uint256",
          "name": "_totalpoints",
          "type": "uint256"
        }
      ],
      "name": "claimReward",
      "outputs": [],
      "stateMutability": "nonpayable",
      "type": "function"
    },
    {
      "inputs": [
        {
          "internalType": "string",
          "name": "_hitchTime",
          "type": "string"
        },
        {
          "internalType": "string",
          "name": "_cost",
          "type": "string"
        },
        {
          "internalType": "string",
          "name": "_pickup",
          "type": "string"
        },
        {
          "internalType": "string",
          "name": "_destination",
          "type": "string"
        },
        {
          "internalType": "string",
          "name": "_selectedRide",
          "type": "string"
        }
      ],
      "name": "createHitch",
      "outputs": [],
      "stateMutability": "payable",
      "type": "function"
    },
    {
      "inputs": [],
      "name": "getDeployedRides",
      "outputs": [
        {
          "internalType": "contract Hitch[]",
          "name": "",
          "type": "address[]"
        }
      ],
      "stateMutability": "view",
      "type": "function"
    },
    {
      "inputs": [
        {
          "internalType": "uint256",
          "name": "",
          "type": "uint256"
        }
      ],
      "name": "hitches",
      "outputs": [
        {
          "internalType": "contract Hitch",
          "name": "",
          "type": "address"
        }
      ],
      "stateMutability": "view",
      "type": "function"
    },
    {
      "inputs": [],
      "name": "owner",
      "outputs": [
        {
          "internalType": "address payable",
          "name": "",
          "type": "address"
        }
      ],
      "stateMutability": "view",
      "type": "function"
    }
  ],
  "bytecode": "0x608060405234801561001057600080fd5b50336000806101000a81548173ffffffffffffffffffffffffffffffffffffffff021916908373ffffffffffffffffffffffffffffffffffffffff16021790555061230b806100606000396000f3fe608060405260043610620000505760003560e01c80633942aa831462000055578063755a038f146200008557806386bb8f3714620000a55780638da5cb5b14620000d3578063dc1947c81462000103575b600080fd5b3480156200006257600080fd5b506200006d62000147565b6040516200007c919062000552565b60405180910390f35b620000a360048036038101906200009d9190620005ee565b620001d7565b005b348015620000b257600080fd5b50620000d16004803603810190620000cb919062000762565b620002e6565b005b348015620000e057600080fd5b50620000eb62000398565b604051620000fa9190620007ce565b60405180910390f35b3480156200011057600080fd5b506200012f6004803603810190620001299190620007eb565b620003bc565b6040516200013e91906200082e565b60405180910390f35b60606001805480602002602001604051908101604052809291908181526020018280548015620001cd57602002820191906000526020600020905b8160009054906101000a900473ffffffffffffffffffffffffffffffffffffffff1673ffffffffffffffffffffffffffffffffffffffff168152602001906001019080831162000182575b5050505050905090565b60003403620001e557600080fd5b60006064606134620001f891906200087a565b620002049190620008f4565b338a8a8e8e8c8c8c8c8c8c60008054906101000a900473ffffffffffffffffffffffffffffffffffffffff166040516200023e90620003fc565b620002559c9b9a99989796959493929190620009da565b6040518091039082f090508015801562000273573d6000803e3d6000fd5b5090506001819080600181540180825580915050600190039060005260206000200160009091909190916101000a81548173ffffffffffffffffffffffffffffffffffffffff021916908373ffffffffffffffffffffffffffffffffffffffff1602179055505050505050505050505050565b600082116200032c576040517f08c379a0000000000000000000000000000000000000000000000000000000008152600401620003239062000afa565b60405180910390fd5b60008183476200033d91906200087a565b620003499190620008f4565b90503373ffffffffffffffffffffffffffffffffffffffff166108fc829081150290604051600060405180830381858888f1935050505015801562000392573d6000803e3d6000fd5b50505050565b60008054906101000a900473ffffffffffffffffffffffffffffffffffffffff1681565b60018181548110620003cd57600080fd5b906000526020600020016000915054906101000a900473ffffffffffffffffffffffffffffffffffffffff1681565b6117b98062000b1d83390190565b600081519050919050565b600082825260208201905092915050565b6000819050602082019050919050565b600073ffffffffffffffffffffffffffffffffffffffff82169050919050565b6000819050919050565b6000620004816200047b620004758462000436565b62000456565b62000436565b9050919050565b6000620004958262000460565b9050919050565b6000620004a98262000488565b9050919050565b620004bb816200049c565b82525050565b6000620004cf8383620004b0565b60208301905092915050565b6000602082019050919050565b6000620004f5826200040a565b62000501818562000415565b93506200050e8362000426565b8060005b8381101562000545578151620005298882620004c1565b97506200053683620004db565b92505060018101905062000512565b5085935050505092915050565b600060208201905081810360008301526200056e8184620004e8565b905092915050565b600080fd5b600080fd5b600080fd5b600080fd5b600080fd5b60008083601f840112620005a857620005a762000580565b5b8235905067ffffffffffffffff811115620005c857620005c762000585565b5b602083019150836001820283011115620005e757620005e66200058a565b5b9250929050565b60008060008060008060008060008060a08b8d03121562000614576200061362000576565b5b60008b013567ffffffffffffffff8111156200063557620006346200057b565b5b620006438d828e016200058f565b9a509a505060208b013567ffffffffffffffff8111156200066957620006686200057b565b5b620006778d828e016200058f565b985098505060408b013567ffffffffffffffff8111156200069d576200069c6200057b565b5b620006ab8d828e016200058f565b965096505060608b013567ffffffffffffffff811115620006d157620006d06200057b565b5b620006df8d828e016200058f565b945094505060808b013567ffffffffffffffff8111156200070557620007046200057b565b5b620007138d828e016200058f565b92509250509295989b9194979a5092959850565b6000819050919050565b6200073c8162000727565b81146200074857600080fd5b50565b6000813590506200075c8162000731565b92915050565b600080604083850312156200077c576200077b62000576565b5b60006200078c858286016200074b565b92505060206200079f858286016200074b565b9150509250929050565b6000620007b68262000436565b9050919050565b620007c881620007a9565b82525050565b6000602082019050620007e56000830184620007bd565b92915050565b60006020828403121562000804576200080362000576565b5b600062000814848285016200074b565b91505092915050565b62000828816200049c565b82525050565b60006020820190506200084560008301846200081d565b92915050565b7f4e487b7100000000000000000000000000000000000000000000000000000000600052601160045260246000fd5b6000620008878262000727565b9150620008948362000727565b9250828202620008a48162000727565b91508282048414831517620008be57620008bd6200084b565b5b5092915050565b7f4e487b7100000000000000000000000000000000000000000000000000000000600052601260045260246000fd5b6000620009018262000727565b91506200090e8362000727565b925082620009215762000920620008c5565b5b828204905092915050565b6000620009398262000436565b9050919050565b6200094b816200092c565b82525050565b600082825260208201905092915050565b82818337600083830152505050565b6000601f19601f8301169050919050565b600062000990838562000951565b93506200099f83858462000962565b620009aa8362000971565b840190509392505050565b6000620009c28262000488565b9050919050565b620009d481620009b5565b82525050565b600060e082019050620009f1600083018f62000940565b818103602083015262000a06818d8f62000982565b9050818103604083015262000a1d818b8d62000982565b9050818103606083015262000a3481898b62000982565b9050818103608083015262000a4b81878962000982565b905081810360a083015262000a6281858762000982565b905062000a7360c0830184620009c9565b9d9c50505050505050505050505050565b7f596f7520617265206e6f7420656c696769626c6520746f20636c61696d20726560008201527f776172642e000000000000000000000000000000000000000000000000000000602082015250565b600062000ae260258362000951565b915062000aef8262000a84565b604082019050919050565b6000602082019050818103600083015262000b158162000ad3565b905091905056fe6080604052604051620017b9380380620017b9833981810160405281019062000029919062000337565b80600260006101000a81548173ffffffffffffffffffffffffffffffffffffffff021916908373ffffffffffffffffffffffffffffffffffffffff160217905550866000806101000a81548173ffffffffffffffffffffffffffffffffffffffff021916908373ffffffffffffffffffffffffffffffffffffffff1602179055506000600860006101000a81548160ff02191690836004811115620000d357620000d262000485565b5b02179055508560039081620000e99190620006ff565b508460049081620000fb9190620006ff565b5083600590816200010d9190620006ff565b5082600690816200011f9190620006ff565b508160079081620001319190620006ff565b5050505050505050620007e6565b6000604051905090565b600080fd5b600080fd5b600073ffffffffffffffffffffffffffffffffffffffff82169050919050565b6000620001808262000153565b9050919050565b620001928162000173565b81146200019e57600080fd5b50565b600081519050620001b28162000187565b92915050565b600080fd5b600080fd5b6000601f19601f8301169050919050565b7f4e487b7100000000000000000000000000000000000000000000000000000000600052604160045260246000fd5b6200020d82620001c2565b810181811067ffffffffffffffff821117156200022f576200022e620001d3565b5b80604052505050565b6000620002446200013f565b905062000252828262000202565b919050565b600067ffffffffffffffff821115620002755762000274620001d3565b5b6200028082620001c2565b9050602081019050919050565b60005b83811015620002ad57808201518184015260208101905062000290565b60008484015250505050565b6000620002d0620002ca8462000257565b62000238565b905082815260208101848484011115620002ef57620002ee620001bd565b5b620002fc8482856200028d565b509392505050565b600082601f8301126200031c576200031b620001b8565b5b81516200032e848260208601620002b9565b91505092915050565b600080600080600080600060e0888a03121562000359576200035862000149565b5b6000620003698a828b01620001a1565b975050602088015167ffffffffffffffff8111156200038d576200038c6200014e565b5b6200039b8a828b0162000304565b965050604088015167ffffffffffffffff811115620003bf57620003be6200014e565b5b620003cd8a828b0162000304565b955050606088015167ffffffffffffffff811115620003f157620003f06200014e565b5b620003ff8a828b0162000304565b945050608088015167ffffffffffffffff8111156200042357620004226200014e565b5b620004318a828b0162000304565b93505060a088015167ffffffffffffffff8111156200045557620004546200014e565b5b620004638a828b0162000304565b92505060c0620004768a828b01620001a1565b91505092959891949750929550565b7f4e487b7100000000000000000000000000000000000000000000000000000000600052602160045260246000fd5b600081519050919050565b7f4e487b7100000000000000000000000000000000000000000000000000000000600052602260045260246000fd5b600060028204905060018216806200050757607f821691505b6020821081036200051d576200051c620004bf565b5b50919050565b60008190508160005260206000209050919050565b60006020601f8301049050919050565b600082821b905092915050565b600060088302620005877fffffffffffffffffffffffffffffffffffffffffffffffffffffffffffffffff8262000548565b62000593868362000548565b95508019841693508086168417925050509392505050565b6000819050919050565b6000819050919050565b6000620005e0620005da620005d484620005ab565b620005b5565b620005ab565b9050919050565b6000819050919050565b620005fc83620005bf565b620006146200060b82620005e7565b84845462000555565b825550505050565b600090565b6200062b6200061c565b62000638818484620005f1565b505050565b5b8181101562000660576200065460008262000621565b6001810190506200063e565b5050565b601f821115620006af57620006798162000523565b620006848462000538565b8101602085101562000694578190505b620006ac620006a38562000538565b8301826200063d565b50505b505050565b600082821c905092915050565b6000620006d460001984600802620006b4565b1980831691505092915050565b6000620006ef8383620006c1565b9150826002028217905092915050565b6200070a82620004b4565b67ffffffffffffffff811115620007265762000725620001d3565b5b620007328254620004ee565b6200073f82828562000664565b600060209050601f83116001811462000777576000841562000762578287015190505b6200076e8582620006e1565b865550620007de565b601f198416620007878662000523565b60005b82811015620007b1578489015182556001820191506020850194506020810190506200078a565b86831015620007d15784890151620007cd601f891682620006c1565b8355505b6001600288020188555050505b505050505050565b610fc380620007f66000396000f3fe6080604052600436106100dd5760003560e01c8063c3ed68831161007f578063e1e5b1ee11610059578063e1e5b1ee14610254578063fd044b391461027f578063fd336168146102aa578063fdc8be77146102c1576100dd565b8063c3ed6883146101fb578063da795ca214610226578063dd5897f71461023d576100dd565b80636ecc5d62116100bb5780636ecc5d621461014f5780638da5cb5b1461017a578063a37a45b6146101a5578063b269681d146101d0576100dd565b806313faede6146100e257806353c0a0061461010d5780636d13e36f14610138575b600080fd5b3480156100ee57600080fd5b506100f76102cb565b6040516101049190610ca2565b60405180910390f35b34801561011957600080fd5b50610122610359565b60405161012f9190610d05565b60405180910390f35b34801561014457600080fd5b5061014d61037d565b005b34801561015b57600080fd5b50610164610404565b6040516101719190610d05565b60405180910390f35b34801561018657600080fd5b5061018f61042a565b60405161019c9190610d05565b60405180910390f35b3480156101b157600080fd5b506101ba610450565b6040516101c79190610ca2565b60405180910390f35b3480156101dc57600080fd5b506101e56104de565b6040516101f29190610ca2565b60405180910390f35b34801561020757600080fd5b5061021061056c565b60405161021d9190610ca2565b60405180910390f35b34801561023257600080fd5b5061023b6105fa565b005b34801561024957600080fd5b506102526107c2565b005b34801561026057600080fd5b5061026961092c565b6040516102769190610ca2565b60405180910390f35b34801561028b57600080fd5b506102946109ba565b6040516102a19190610d97565b60405180910390f35b3480156102b657600080fd5b506102bf6109cd565b005b6102c9610ad6565b005b600380546102d890610de1565b80601f016020809104026020016040519081016040528092919081815260200182805461030490610de1565b80156103515780601f1061032657610100808354040283529160200191610351565b820191906000526020600020905b81548152906001019060200180831161033457829003601f168201915b505050505081565b60008054906101000a900473ffffffffffffffffffffffffffffffffffffffff1681565b600160009054906101000a900473ffffffffffffffffffffffffffffffffffffffff1673ffffffffffffffffffffffffffffffffffffffff163373ffffffffffffffffffffffffffffffffffffffff16146103d757600080fd5b6002600860006101000a81548160ff021916908360048111156103fd576103fc610d20565b5b0217905550565b600160009054906101000a900473ffffffffffffffffffffffffffffffffffffffff1681565b600260009054906101000a900473ffffffffffffffffffffffffffffffffffffffff1681565b6007805461045d90610de1565b80601f016020809104026020016040519081016040528092919081815260200182805461048990610de1565b80156104d65780601f106104ab576101008083540402835291602001916104d6565b820191906000526020600020905b8154815290600101906020018083116104b957829003601f168201915b505050505081565b600680546104eb90610de1565b80601f016020809104026020016040519081016040528092919081815260200182805461051790610de1565b80156105645780601f1061053957610100808354040283529160200191610564565b820191906000526020600020905b81548152906001019060200180831161054757829003601f168201915b505050505081565b6004805461057990610de1565b80601f01602080910402602001604051908101604052809291908181526020018280546105a590610de1565b80156105f25780601f106105c7576101008083540402835291602001916105f2565b820191906000526020600020905b8154815290600101906020018083116105d557829003601f168201915b505050505081565b600160009054906101000a900473ffffffffffffffffffffffffffffffffffffffff1673ffffffffffffffffffffffffffffffffffffffff163373ffffffffffffffffffffffffffffffffffffffff161461065457600080fd5b6002600481111561066857610667610d20565b5b600860009054906101000a900460ff16600481111561068a57610689610d20565b5b1461069457600080fd5b600060646063476106a59190610e4b565b6106af9190610ebc565b9050600081476106bf9190610eed565b9050600160009054906101000a900473ffffffffffffffffffffffffffffffffffffffff1673ffffffffffffffffffffffffffffffffffffffff166108fc839081150290604051600060405180830381858888f19350505050158015610729573d6000803e3d6000fd5b50600260009054906101000a900473ffffffffffffffffffffffffffffffffffffffff1673ffffffffffffffffffffffffffffffffffffffff166108fc829081150290604051600060405180830381858888f19350505050158015610792573d6000803e3d6000fd5b506003600860006101000a81548160ff021916908360048111156107b9576107b8610d20565b5b02179055505050565b60008054906101000a900473ffffffffffffffffffffffffffffffffffffffff1673ffffffffffffffffffffffffffffffffffffffff163373ffffffffffffffffffffffffffffffffffffffff161461081a57600080fd5b6000600481111561082e5761082d610d20565b5b600860009054906101000a900460ff1660048111156108505761084f610d20565b5b148061088f57506001600481111561086b5761086a610d20565b5b600860009054906101000a900460ff16600481111561088d5761088c610d20565b5b145b61089857600080fd5b60008054906101000a900473ffffffffffffffffffffffffffffffffffffffff1673ffffffffffffffffffffffffffffffffffffffff166108fc479081150290604051600060405180830381858888f193505050501580156108fe573d6000803e3d6000fd5b506004600860006101000a81548160ff0219169083600481111561092557610924610d20565b5b0217905550565b6005805461093990610de1565b80601f016020809104026020016040519081016040528092919081815260200182805461096590610de1565b80156109b25780601f10610987576101008083540402835291602001916109b2565b820191906000526020600020905b81548152906001019060200180831161099557829003601f168201915b505050505081565b600860009054906101000a900460ff1681565b600160009054906101000a900473ffffffffffffffffffffffffffffffffffffffff1673ffffffffffffffffffffffffffffffffffffffff163373ffffffffffffffffffffffffffffffffffffffff1614610a2757600080fd5b60016004811115610a3b57610a3a610d20565b5b600860009054906101000a900460ff166004811115610a5d57610a5c610d20565b5b14610a6757600080fd5b6000600860006101000a81548160ff02191690836004811115610a8d57610a8c610d20565b5b02179055506000600160006101000a81548173ffffffffffffffffffffffffffffffffffffffff021916908373ffffffffffffffffffffffffffffffffffffffff160217905550565b60008054906101000a900473ffffffffffffffffffffffffffffffffffffffff1673ffffffffffffffffffffffffffffffffffffffff163373ffffffffffffffffffffffffffffffffffffffff1603610b2e57600080fd5b60006004811115610b4257610b41610d20565b5b600860009054906101000a900460ff166004811115610b6457610b63610d20565b5b14610ba4576040517f08c379a0000000000000000000000000000000000000000000000000000000008152600401610b9b90610f6d565b60405180910390fd5b6001600860006101000a81548160ff02191690836004811115610bca57610bc9610d20565b5b021790555033600160006101000a81548173ffffffffffffffffffffffffffffffffffffffff021916908373ffffffffffffffffffffffffffffffffffffffff160217905550565b600081519050919050565b600082825260208201905092915050565b60005b83811015610c4c578082015181840152602081019050610c31565b60008484015250505050565b6000601f19601f8301169050919050565b6000610c7482610c12565b610c7e8185610c1d565b9350610c8e818560208601610c2e565b610c9781610c58565b840191505092915050565b60006020820190508181036000830152610cbc8184610c69565b905092915050565b600073ffffffffffffffffffffffffffffffffffffffff82169050919050565b6000610cef82610cc4565b9050919050565b610cff81610ce4565b82525050565b6000602082019050610d1a6000830184610cf6565b92915050565b7f4e487b7100000000000000000000000000000000000000000000000000000000600052602160045260246000fd5b60058110610d6057610d5f610d20565b5b50565b6000819050610d7182610d4f565b919050565b6000610d8182610d63565b9050919050565b610d9181610d76565b82525050565b6000602082019050610dac6000830184610d88565b92915050565b7f4e487b7100000000000000000000000000000000000000000000000000000000600052602260045260246000fd5b60006002820490506001821680610df957607f821691505b602082108103610e0c57610e0b610db2565b5b50919050565b6000819050919050565b7f4e487b7100000000000000000000000000000000000000000000000000000000600052601160045260246000fd5b6000610e5682610e12565b9150610e6183610e12565b9250828202610e6f81610e12565b91508282048414831517610e8657610e85610e1c565b5b5092915050565b7f4e487b7100000000000000000000000000000000000000000000000000000000600052601260045260246000fd5b6000610ec782610e12565b9150610ed283610e12565b925082610ee257610ee1610e8d565b5b828204905092915050565b6000610ef882610e12565b9150610f0383610e12565b9250828203905081811115610f1b57610f1a610e1c565b5b92915050565b7f4869746368206e6f206c6f6e67657220617661696c61626c6521000000000000600082015250565b6000610f57601a83610c1d565b9150610f6282610f21565b602082019050919050565b60006020820190508181036000830152610f8681610f4a565b905091905056fea26469706673582212207cad895b48f5e4520635ea7e80d5832a2fe8d0a6849f2dfe6f2cab9a0e4041b764736f6c63430008110033a26469706673582212205258431313791af9329d60ea0c5234a744eee556b7ac44e8f3357e174a9fc95564736f6c63430008110033",
  "linkReferences": {},
  "deployedLinkReferences": {}
}